:10000000FC2F00308A000408840A820700343E3442
:100010004134413441343E34003442347F3440343E
:10002000003442346134513449344634213441344B
:1000300045344B3431341834143412347F34103492
:10004000273445344534453439343C344A34493412
:1000500049343034013471340934053403343634CE
:10006000493449344934363406344934493429341E
:100070001E34383444344434443420347C3404341E
:10008000183404347834003400340034003400343C
:10009000003460346034003400343E344134413440
:1000A00041343E34003442347F34403400344234EE
:1000B00061345134493446342134413445344B346D
:1000C00031341834143412347F3410342734453426
:1000D0004534453439343C344A3449344934303475
:1000E0000134713409340534033436344934493425
:1000F0004934363406344934493429341E343834CA
:1001000044344434443420347C34043418340434C7
:100110007834003400340034003400340034603467
:06012000603400340034DD
:100A200078348312031305110330F000F00B162DF8
:100A300083120313851108008312031385150330F5
:100A4000F000F00B212D8312031305150800F400AC
:100A5000112583120313290898250030982574085E
:100A600098251C250800342D8312031385150330A7
:100A7000F000F00B392D8312031385113F2D080070
:100A8000F300F201731C482D7008F1007108F207A1
:100A90000310F00D0310F30C7308031D422D7208B0
:100AA0000800AE3027258D3027251430272520302B
:100AB000272500302725A1302725C8302725DA3003
:100AC00027252230272581302725FF302725AF30E5
:100AD00027250800F70108307702031808002130A5
:100AE0002725003027257F30272522302725770826
:100AF00027257708013E272511258312031329088E
:100B0000982540309825F601803076020318922D02
:100B1000003098250130F5007508F6078030760220
:100B2000031C882D1C250130F5007508F7076B2D77
:100B3000F200F301083073020318BC2D7208F100B3
:100B40007303FF3A073E013EA72D0310F10CFF3E51
:100B5000031DA52D711CB02D831203130515B32D94
:100B600083120313051133250130F1007108F307D7
:100B700008307302031C9E2D8316031305153325BD
:100B80000330F100F10BC22D831603130511080089
:100B9000780879040319F52DFD01FD0AF91BDC2DF8
:100BA00001300310F80DF90DFF3E031DD12D01306A
:100BB000FC007C08FD07CE2D79087B02031DE22D89
:100BC00078087A02031CEA2D7808FA027908031CD7
:100BD000FB03FB0201300310F90CF80CFF3E031D70
:100BE000EB2D0130FD02031DDC2D7B08F9007A0896
:100BF000F8000800F501F601700871040319312EA0
:100C0000F701F70AF11B102E01300310F00DF10D62
:100C1000FF3E031D052E0130F4007408F707022E75
:100C200001300310F50DF60DFF3E031D112E710866
:100C30007302031D1D2E70087202031C262E7008FD
:100C4000F2027108031CF303F30275140130031060
:100C5000F10CF00CFF3E031D272E0130F702031D9F
:100C6000102E7608F1007508F0000800F601F11F5B
:100C7000402EF009F109F00A0319F10AF601F60A0B
:100C8000F31F4B2EF209F309F20A0319F30A01309C
:100C9000F4007408F606F701F801700871040319EE
:100CA000822EF501F50AF11B612E01300310F00DC3
:100CB000F10DFF3E031D562E0130F4007408F507B8
:100CC000532E01300310F70DF80DFF3E031D622E69
:100CD00071087302031D6E2E70087202031C772EBA
:100CE0007008F2027108031CF303F3027714013059
:100CF0000310F10CF00CFF3E031D782E0130F502BD
:100D0000031D612E760803198A2EF709F809F70AE0
:100D10000319F80A7808F1007708F0000800F900D4
:100D20002030272501302725213027250D30F700D9
:100D30007708F0007608402527250D30F700770862
:100D4000F00076084025093E272522302725750822
:100D500027257508013E272511258312031329082D
:100D6000982540309825FC0105307C020318012F9E
:100D70000530F7007708F000790840257C07473EEA
:100D800084000120F8007808FD00FB01FA017D1FB6
:100D9000CD2EC030F7007708FB07FD1ED32E303074
:100DA000F7007708FB077D1ED92E0C30F700770877
:100DB000FB07FD1DDF2E0330F7007708FB077D1DC5
:100DC000E52EC030F7007708FA07FD1CEB2E303017
:100DD000F7007708FA077D1CF12E0C30F700770832
:100DE000FA077A0898257B0898257A0898257B08C1
:100DF00098250130F7007708FC0705307C02031CBA
:100E0000B82E1C2520302725003027250800073064
:100E1000831203139F00323083160313850083125D
:100E2000031385150515051090010B30831203136C
:100E3000A2002630A1005D30A000A00B1D2FA10B49
:100E40001D2FA20B1D2F000051256A25F501F50A63
:100E5000073083120313A0002008F6000A308F2603
:100E6000F501F50A083083120313A0002008F600EC
:100E70000B308F26F501F50A043083120313A0000E
:100E80002008F6000D308F26831203138E018F0188
:100E90000514423083120313A000A00B4D2F8312C0
:100EA00003130510851C522F10148518552F101090
:100EB0000C30F0000030F1000F08A000A101200864
:100EC000A100A0010E082007F20000300318013035
:100ED0002107F3003626710883120313A800700857
:100EE000A7000A30F8000030F900E830F0000330C5
:100EF000F1002808F3002708F200FA257108FB002A
:100F00007008FA00C825780883120313A00020088F
:100F1000A3000A30F8000030F9006430F00000301F
:100F2000F1002808F3002708F200FA257108FB00F9
:100F30007008FA00C825780883120313A00020085F
:100F4000A4000A30F8000030F9000A30F000003048
:100F5000F1002808F3002708F200FA257108FB00C9
:100F60007008FA00C825780883120313A00020082F
:100F7000A5000A30F8000030F9002808FB00270817
:100F8000FA00C825780883120313A0002008A600E1
:100F9000F501F50AF601F60A23088F26F501F50A90
:100FA000023083120313A0002008F60024088F26C5
:100FB000F501F50A033083120313A0002008F600A0
:100FC00025088F26F501F50A053083120313A000CA
:100FD0002008F60026088F26063083120313A2008D
:100FE0001330A100AD30A000A00BF42FA10BF42F03
:100FF000A20BF42F0000442F1025A9008301072F16
:02400E000AFFA7
:00000001FF
